{
  "_format": "hh-sol-artifact-1",
  "contractName": "MerkleDistributorTest",
  "sourceName": "contracts/MerkleDistributor.sol",
  "abi": [
    {
      "inputs": [],
      "stateMutability": "nonpayable",
      "type": "constructor"
    },
    {
      "inputs": [
        {
          "internalType": "address",
          "name": "account",
          "type": "address"
        },
        {
          "internalType": "uint256",
          "name": "amount",
          "type": "uint256"
        },
        {
          "internalType": "bytes32[]",
          "name": "merkleProof",
          "type": "bytes32[]"
        }
      ],
      "name": "claim",
      "outputs": [],
      "stateMutability": "nonpayable",
      "type": "function"
    },
    {
      "inputs": [
        {
          "internalType": "address",
          "name": "",
          "type": "address"
        }
      ],
      "name": "isClaimed",
      "outputs": [
        {
          "internalType": "bool",
          "name": "",
          "type": "bool"
        }
      ],
      "stateMutability": "view",
      "type": "function"
    },
    {
      "inputs": [],
      "name": "merkleRoot",
      "outputs": [
        {
          "internalType": "bytes32",
          "name": "",
          "type": "bytes32"
        }
      ],
      "stateMutability": "view",
      "type": "function"
    },
    {
      "inputs": [
        {
          "internalType": "bytes32",
          "name": "_newRoot",
          "type": "bytes32"
        }
      ],
      "name": "setRoot",
      "outputs": [],
      "stateMutability": "nonpayable",
      "type": "function"
    },
    {
      "inputs": [],
      "name": "token",
      "outputs": [
        {
          "internalType": "address",
          "name": "",
          "type": "address"
        }
      ],
      "stateMutability": "view",
      "type": "function"
    }
  ],
  "bytecode": "0x608060405234801561001057600080fd5b506103fe806100206000396000f3fe608060405234801561001057600080fd5b50600436106100575760003560e01c80632eb4a7ab1461005c5780633d13f874146100785780638cc080251461008d578063dab5f340146100c0578063fc0c546a146100d3575b600080fd5b61006560015481565b6040519081526020015b60405180910390f35b61008b6100863660046102cd565b6100fe565b005b6100b061009b366004610357565b60026020526000908152604090205460ff1681565b604051901515815260200161006f565b61008b6100ce366004610372565b600155565b6000546100e6906001600160a01b031681565b6040516001600160a01b03909116815260200161006f565b6001600160a01b03841660009081526002602052604090205460ff161561015f5760405162461bcd60e51b815260206004820152601060248201526f20b63932b0b23c9031b630b4b6b2b21760811b60448201526064015b60405180910390fd5b6040516bffffffffffffffffffffffff19606086901b1660208201526034810184905260009060540160405160208183030381529060405280519060200120905060006101b084846001548561021b565b9050806101f05760405162461bcd60e51b815260206004820152600e60248201526d24b73b30b634b210383937b7b31760911b6044820152606401610156565b5050506001600160a01b039092166000908152600260205260409020805460ff191660011790555050565b600082610229868685610233565b1495945050505050565b600081815b8481101561027657610262828787848181106102565761025661038b565b9050602002013561027f565b91508061026e816103a1565b915050610238565b50949350505050565b600081831061029b5760008281526020849052604090206102aa565b60008381526020839052604090205b9392505050565b80356001600160a01b03811681146102c857600080fd5b919050565b600080600080606085870312156102e357600080fd5b6102ec856102b1565b935060208501359250604085013567ffffffffffffffff8082111561031057600080fd5b818701915087601f83011261032457600080fd5b81358181111561033357600080fd5b8860208260051b850101111561034857600080fd5b95989497505060200194505050565b60006020828403121561036957600080fd5b6102aa826102b1565b60006020828403121561038457600080fd5b5035919050565b634e487b7160e01b600052603260045260246000fd5b6000600182016103c157634e487b7160e01b600052601160045260246000fd5b506001019056fea2646970667358221220c38e2411de8ceef224101af7cb35ac22f70fbf41540f44edb7c7eb4a84d9492964736f6c63430008130033",
  "linkReferences": {},
  "deployedLinkReferences": {}
}