{
  "_format": "hh-sol-artifact-1",
  "contractName": "Presale",
  "sourceName": "contracts/Presale.sol",
  "abi": [
    {
      "inputs": [
        {
          "internalType": "uint256",
          "name": "_rate",
          "type": "uint256"
        },
        {
          "internalType": "address",
          "name": "_wallet",
          "type": "address"
        },
        {
          "internalType": "contract TinToken",
          "name": "_token",
          "type": "address"
        }
      ],
      "stateMutability": "nonpayable",
      "type": "constructor"
    },
    {
      "anonymous": false,
      "inputs": [
        {
          "indexed": true,
          "internalType": "address",
          "name": "previousOwner",
          "type": "address"
        },
        {
          "indexed": true,
          "internalType": "address",
          "name": "newOwner",
          "type": "address"
        }
      ],
      "name": "OwnershipTransferred",
      "type": "event"
    },
    {
      "inputs": [],
      "name": "buyTokens",
      "outputs": [],
      "stateMutability": "payable",
      "type": "function"
    },
    {
      "inputs": [],
      "name": "owner",
      "outputs": [
        {
          "internalType": "address",
          "name": "",
          "type": "address"
        }
      ],
      "stateMutability": "view",
      "type": "function"
    },
    {
      "inputs": [],
      "name": "rate",
      "outputs": [
        {
          "internalType": "uint256",
          "name": "",
          "type": "uint256"
        }
      ],
      "stateMutability": "view",
      "type": "function"
    },
    {
      "inputs": [],
      "name": "renounceOwnership",
      "outputs": [],
      "stateMutability": "nonpayable",
      "type": "function"
    },
    {
      "inputs": [
        {
          "internalType": "uint256",
          "name": "newRate",
          "type": "uint256"
        }
      ],
      "name": "setRate",
      "outputs": [],
      "stateMutability": "nonpayable",
      "type": "function"
    },
    {
      "inputs": [
        {
          "internalType": "address",
          "name": "newWallet",
          "type": "address"
        }
      ],
      "name": "setWallet",
      "outputs": [],
      "stateMutability": "nonpayable",
      "type": "function"
    },
    {
      "inputs": [],
      "name": "token",
      "outputs": [
        {
          "internalType": "contract TinToken",
          "name": "",
          "type": "address"
        }
      ],
      "stateMutability": "view",
      "type": "function"
    },
    {
      "inputs": [],
      "name": "transferAllTokensToOwner",
      "outputs": [],
      "stateMutability": "nonpayable",
      "type": "function"
    },
    {
      "inputs": [
        {
          "internalType": "address",
          "name": "newOwner",
          "type": "address"
        }
      ],
      "name": "transferOwnership",
      "outputs": [],
      "stateMutability": "nonpayable",
      "type": "function"
    },
    {
      "inputs": [],
      "name": "transferTokensToWallet",
      "outputs": [],
      "stateMutability": "nonpayable",
      "type": "function"
    },
    {
      "inputs": [],
      "name": "wallet",
      "outputs": [
        {
          "internalType": "address",
          "name": "",
          "type": "address"
        }
      ],
      "stateMutability": "view",
      "type": "function"
    },
    {
      "inputs": [],
      "name": "weiRaised",
      "outputs": [
        {
          "internalType": "uint256",
          "name": "",
          "type": "uint256"
        }
      ],
      "stateMutability": "view",
      "type": "function"
    },
    {
      "stateMutability": "payable",
      "type": "receive"
    }
  ],
  "bytecode": "0x608060405234801561001057600080fd5b506040516107ea3803806107ea83398101604081905261002f916100d7565b6100383361006f565b600392909255600280546001600160a01b039283166001600160a01b0319918216179091556001805492909316911617905561011a565b600080546001600160a01b038381166001600160a01b0319831681178455604051919092169283917f8be0079c531659141344cd1fd0a4f28419497f9722a3daafe3b4186f6b6457e09190a35050565b6001600160a01b03811681146100d457600080fd5b50565b6000806000606084860312156100ec57600080fd5b8351925060208401516100fe816100bf565b604085015190925061010f816100bf565b809150509250925092565b6106c1806101296000396000f3fe6080604052600436106100ab5760003560e01c80638bd8669e116100645780638bd8669e1461017a5780638da5cb5b1461018f578063d0febe4c146101ad578063deaa59df146101b5578063f2fde38b146101d5578063fc0c546a146101f557600080fd5b80630c95711e146100b75780632c4e722e146100ce57806334fcf437146100f75780634042b66f14610117578063521eb2731461012d578063715018a61461016557600080fd5b366100b257005b600080fd5b3480156100c357600080fd5b506100cc610215565b005b3480156100da57600080fd5b506100e460035481565b6040519081526020015b60405180910390f35b34801561010357600080fd5b506100cc6101123660046105c1565b610309565b34801561012357600080fd5b506100e460045481565b34801561013957600080fd5b5060025461014d906001600160a01b031681565b6040516001600160a01b0390911681526020016100ee565b34801561017157600080fd5b506100cc610316565b34801561018657600080fd5b506100cc61032a565b34801561019b57600080fd5b506000546001600160a01b031661014d565b6100cc610385565b3480156101c157600080fd5b506100cc6101d03660046105da565b610472565b3480156101e157600080fd5b506100cc6101f03660046105da565b61049c565b34801561020157600080fd5b5060015461014d906001600160a01b031681565b61021d610517565b6001546002546040516370a0823160e01b81523060048201526001600160a01b039283169263a9059cbb92169083906370a08231906024015b602060405180830381865afa158015610273573d6000803e3d6000fd5b505050506040513d601f19601f82011682018060405250810190610297919061060a565b6040516001600160e01b031960e085901b1681526001600160a01b03909216600483015260248201526044016020604051808303816000875af11580156102e2573d6000803e3d6000fd5b505050506040513d601f19601f820116820180604052508101906103069190610623565b50565b610311610517565b600355565b61031e610517565b6103286000610571565b565b610332610517565b6001546001600160a01b031663a9059cbb6103556000546001600160a01b031690565b6001546040516370a0823160e01b81523060048201526001600160a01b03909116906370a0823190602401610256565b3460000361039257600080fd5b6000600354346103a2919061065b565b9050346004546103b29190610678565b600490815560015460405163a9059cbb60e01b81523392810192909252602482018390526001600160a01b03169063a9059cbb906044016020604051808303816000875af1158015610408573d6000803e3d6000fd5b505050506040513d601f19601f8201168201806040525081019061042c9190610623565b61043557600080fd5b6002546040516001600160a01b03909116903480156108fc02916000818181858888f1935050505015801561046e573d6000803e3d6000fd5b5050565b61047a610517565b600280546001600160a01b0319166001600160a01b0392909216919091179055565b6104a4610517565b6001600160a01b03811661050e5760405162461bcd60e51b815260206004820152602660248201527f4f776e61626c653a206e6577206f776e657220697320746865207a65726f206160448201526564647265737360d01b60648201526084015b60405180910390fd5b61030681610571565b6000546001600160a01b031633146103285760405162461bcd60e51b815260206004820181905260248201527f4f776e61626c653a2063616c6c6572206973206e6f7420746865206f776e65726044820152606401610505565b600080546001600160a01b038381166001600160a01b0319831681178455604051919092169283917f8be0079c531659141344cd1fd0a4f28419497f9722a3daafe3b4186f6b6457e09190a35050565b6000602082840312156105d357600080fd5b5035919050565b6000602082840312156105ec57600080fd5b81356001600160a01b038116811461060357600080fd5b9392505050565b60006020828403121561061c57600080fd5b5051919050565b60006020828403121561063557600080fd5b8151801515811461060357600080fd5b634e487b7160e01b600052601160045260246000fd5b808202811582820484141761067257610672610645565b92915050565b808201808211156106725761067261064556fea2646970667358221220b883eeac8977a3ce508cd42365e54a0a6ba3a730be48ead63eafe3441721190f64736f6c63430008130033",
  "linkReferences": {},
  "deployedLinkReferences": {}
}